:020000040800F2
:100000003055002031030008E1360008F5290008CA
:100010001D340008C50B0008F1470008000000006F
:100020000000000000000000000000007102000855
:10003000D70C000800000000CD0200085D3F00085A
:100040004B0300084B0300084B0300084B03000858
:100050004B0300084B030008730D00084B03000816
:100060004B0300084B030008790D00084B03000800
:100070004B0300084B0300084B0300084B03000828
:10008000F10B0008FD0B00084B0300084B030008B0
:100090004B0300084B0300084B0300084B03000808
:1000A0004B0300082D4000084B0300084B030008D9
:1000B0004B0300084B0300084B0300084B030008E8
:1000C0004B0300084B0300084B0300084B030008D8
:1000D0004B0300084B030008394700084B03000896
:1000E0004B0300084B0300084B0300084B030008B8
:1000F0004B0300084B0300084B0300084B030008A8
:100100004B0300084B0300084B0300084B03000897
:100110004B0300084B0300084B0300084B03000887
:100120004B0300084B0300084B0300084B03000877
:100130004B0300084B0300084B0300084B03000867
:100140004B0300084B0300084B0300084B03000857
:100150004B0300084B0300084B0300084B03000847
:100160004B0300084B0300084B0300084B03000837
:100170004B0300084B0300084B030008000000007D
:100180004B0300084B03000800F002F800F060F891
:100190000AA090E8000C82448344AAF10107DA45E2
:1001A00001D100F055F8AFF2090EBAE80F0013F0D4
:1001B000010F18BFFB1A43F00103184780710000BC
:1001C000A07100000A444FF0000C10F8013B13F03E
:1001D000070408BF10F8014B1D1108BF10F8015BA0
:1001E000641E05D010F8016B641E01F8016BF9D193
:1001F00013F0080F1EBF10F8014BAD1C0C1B09D1EA
:100200006D1E58BF01F801CBFAD505E014F8016B5B
:1002100001F8016B6D1EF9D59142D6D370470000ED
:100220000023002400250026103A28BF78C1FBD8FF
:10023000520728BF30C148BF0B6070471FB506F09A
:1002400044FB9DE8030000F093FA1FBD10B510BDFC
:1002500000F027FB1146FFF7F1FF04F02BFB00F045
:100260002DF903B4FFF7F2FF03BC00F013FB00000D
:100270002C4B19680868B0E8F04F80F30988BFF389
:100280006F8F4FF0000080F311887047000000006E
:1002900008480068006880F308884FF0000080F389
:1002A000148862B661B6BFF34F8FBFF36F8F00DF64
:1002B00000BF00BF08ED00E0DFF80C00016841F46A
:1002C00070010160704700BF88ED00E0EFF3098026
:1002D000BFF36F8F134B1A681EF0100F08BF20ED8D
:1002E000108A20E9F04F106009B44FF0500080F3FD
:1002F0001188BFF34F8FBFF36F8F05F04FFA4FF0A8
:10030000000080F3118809BC19680868B0E8F04F54
:100310001EF0100F08BFB0EC108A80F30988BFF3FD
:100320006F8F70470C020020EFF3058070470000CC
:100330000948804709480047FEE7FEE7FEE7FEE779
:10034000FEE7FEE7FEE7FEE7FEE7FEE704480549B5
:10035000054A064B704700001D400008890100084F
:10036000304F002030550020305100203051002007
:1003700070B5064600F0E0F9056806F10B0020F0C4
:100380000704B4429CBF002070BD2B466A68BAB116
:100390001068A04210D304F1080188423CBF5068A5
:1003A000586007D35168101941601168091B01603A
:1003B00058601460101D70BD13465268002AE7D1C2
:1003C0002146284600F0C0F90028DED170BD53EA6E
:1003D000020C00F069802DE9F04B4FF00006002B75
:1003E0001FBFB3FA83F503FA05F424FA05F65E405D
:1003F00012BF1643B2FA82F502FA05F4C5F12005E0
:100400001EBF22FA05FC44EA0C04203556EA044CCF
:100410004FEA144418BF641C4FF000084FF0000965
:10042000904271EB030C39D3002919BFB1FA81F75F
:1004300001FA07F6B0FA80F700FA07F6C7F12007CD
:100440001EBF20FA07FC46EA0C062037B6FBF4FC78
:10045000A7EB0507103F07F01F0BCBF120060CFAA6
:100460000BFB2CFA06F644BFB3460026202FA4BF90
:100470005E464FF0000B5BEA060C08BF4FF0010B25
:1004800019EB0B09ABFB027C48EB0608C01B06FB13
:1004900002CC0BFB03CC71EB0C01C1E70B4602460F
:1004A00041464846BDE8F08B13B54FF000004FF0D1
:1004B0000001AFF30080BDE81C40704710B5044652
:1004C000AFF300802046BDE81040FFF7CABE40EA07
:1004D0000103024630B59B0710D14FF0013400E014
:1004E00008C208C91D1B9D4315EAC41FF8D013F0AC
:1004F000FF0102F8011B0DD01B0AF8E711F8013BC0
:10050000002B02F8013B05D011F8013B002B02F84B
:10051000013BF3D130BD421E12F8013F002BFBD14D
:1005200011F8013B002B02F8013BF9D17047032A77
:1005300040F2308010F0030C00F0158011F8013B00
:10054000BCF1020F624498BF11F801CB00F8013BE7
:1005500038BF11F8013BA2F1040298BF00F801CBAB
:1005600038BF00F8013B11F0030300F02580083A82
:10057000C0F0088051F8043B083A51F804CBA0E8D9
:100580000810F5E7121D5CBF51F8043B40F8043B2E
:10059000AFF30080D20724BF11F8013B11F801CB63
:1005A00048BF11F8012B24BF00F8013B00F801CB34
:1005B00048BF00F8012B704710B5203AC0F00B80FF
:1005C000B1E81850203AA0E81850B1E81850A0E857
:1005D0001850BFF4F5AF5FEA027C24BFB1E81850B1
:1005E000A0E8185044BF18C918C0BDE810405FEA21
:1005F000827C24BF51F8043B40F8043B08BF70479D
:10060000D20728BF31F8023B48BF11F8012B28BFA1
:1006100020F8023B48BF00F8012B70474FF0000262
:100620000429C0F0128010F0030C00F01B80CCF104
:10063000040CBCF1020F18BF00F8012BA8BF20F872
:10064000022BA1EB0C0100F00DB85FEAC17C24BFC6
:1006500000F8012B00F8012B48BF00F8012B704770
:100660004FF0000200B5134694469646203922BF4B
:10067000A0E80C50A0E80C50B1F12001BFF4F7AF96
:10068000090728BFA0E80C5048BF0CC05DF804EB78
:10069000890028BF40F8042B08BF704748BF20F8E6
:1006A000022B11F0804F18BF00F8012B704700009B
:1006B0004FF0013C50F8042B51F8043B9A4221D1F1
:1006C000A2EB0C03934313EACC1317D150F8042B7D
:1006D00051F8043B9A4215D1A2EB0C03934313EA61
:1006E000CC130BD150F8042B51F8043B9A4209D19A
:1006F000A2EB0C03934313EACC13DBD04FF00000C2
:10070000704700BFD01A01BAB1FA81F101F01801A7
:1007100022FA01F0CB40C1F12001DBB2C0B2C01A15
:100720002CFA01F3D11A914311EAC311E6D17047B3
:10073000704770477047000000487047D84E00204F
:10074000704770477047704738B504460A46002026
:100750006946AFF30080002808BF38BD0246009903
:10076000204600F075F8012038BD012000F08AB85D
:10077000F8B5AFF30080054600200C46102000BFFE
:100780000646A819A0420DD9324669460020AFF3AB
:100790000080070008BF00F075F80098A04218BF5D
:1007A0000546C419FFF7C8FF05600746F01D20F095
:1007B00007004619284600F00AF8B44208BFF8BD01
:1007C000A21B31463868BDE8F84000F041B800216E
:1007D0000160C0E9011070471020704770B50446F1
:1007E000051FFFF7A9FF0068002C14BF446870BD07
:1007F000002C18BFAC423CBF20466468F8D30168A7
:100800000A18AA4218BF456003D12A680546114458
:10081000016028684119A1421CBF6C6070BD61680D
:10082000696021680844286070BD10B500F00CF8BC
:10083000006810BD10B5044600F006F8046010BD55
:1008400000487047D04E002000487047D04E00202E
:10085000034640688C46002818BF88423CBF0346C8
:100860004068F8D318681844884207D00CF1030098
:1008700020F00700001D411A521A0146081D0A60A7
:10088000FFF7ACBF10B500F037F8BDE8104000F03E
:100890002DB8000001491820ABBEFEE7260002007B
:1008A00070477546FFF7CCFFAE46050069465346D4
:1008B00020F00700854618B020B5FFF747FDBDE8DA
:1008C00020404FF000064FF000074FF000084FF0B7
:1008D000000B21F00701AC46ACE8C009ACE8C00948
:1008E000ACE8C009ACE8C0098D467047002801D0CB
:1008F000FFF7D0BF7047000010B5012805D00021D8
:1009000003A000F021F8012010BD09A1F8E70000C4
:1009100053494752544D454D3A204F7574206F66E8
:100920002068656170206D656D6F72790000000050
:100930003A2048656170206D656D6F727920636F34
:10094000727275707465640070B505460C460A20B5
:1009500000E06D1C00F011F835B128780028F8D1BE
:1009600002E0641C00F009F814B120780028F8D1E6
:10097000BDE870400A20AFF3008008B569468DF8E5
:1009800000000320ABBE08BD2DE9F0419AB08046BF
:100990000E4688494046FFF78BFE874D70B3854968
:1009A00040461539FFF784FE00286CD08149404647
:1009B0000839FFF77DFE012700287DD07D4940469C
:1009C0000C31FFF775FE0024002876D079494046A7
:1009D0000F39FFF76DFE002870D07649404615317B
:1009E000FFF766FE00286AD01AB03046BDE8F04135
:1009F000704914237E222D3101F09DBF20226F49C2
:100A000012A8FFF7D9FD6D4C103CD4E90001CDE9E7
:100A10001001D4E90201CDE90E01202204F13001D8
:100A200006A8FFF7C9FDD4E91512206D03AB07C373
:100A3000D4E91802E16DCDE90102009128684078FF
:100A4000B8B110A912A8FFF766FD28688078A8B190
:100A5000694606A8FFF75FFD06A912A8FFF75BFD30
:100A600014231E2212A9304601F065FF1AB0BDE81A
:100A7000F0810EA912A8FFF74EFDE6E703A906A82C
:100A8000FFF749FDE8E74EA00068199020224B4986
:100A9000583111A8FFF790FD484A0DAC7032D2E9E9
:100AA0000313906852690BC410922868426892ED53
:100AB000030AFDEEC00A03E04CE057E062E06DE09F
:100AC00010EE900A30300C90F2EE040A0A2320EE69
:100AD000200ABDEEC00A10EE100A90FBF3F103FBF2
:100AE000110030300B9092ED070ABDEEC01A11EEE6
:100AF000100A30300A9020EE200ABDEEC00A10EE37
:100B0000100A90FBF3F103FB1100303009900CA99F
:100B100011A8FFF700FD19A911A8FFF7FCFC0BA90C
:100B200011A8FFF7F8FC0AA90DA8FFF7F4FC19A912
:100B30000DA8FFF7F0FC09A90DA8FFF7ECFC0DA923
:100B400011A8FFF7E8FC14231E2211A9304601F07A
:100B5000F2FE8BE7286847701AB03046BDE8F041D6
:100B6000144914230E221F3101F0E5BE2868447099
:100B70001AB03046BDE8F0410E4914230E221F3151
:100B800001F0D9BE286887701AB03046BDE8F04140
:100B9000084914230E221F3101F0CDBE286884704D
:100BA0001AB03046BDE8F041024914230E221F312D
:100BB00001F0C1BE51010020000000207C7200083D
:100BC0002E000000FEE7704710B52020FFF7D0FB95
:100BD0000028FFD110BD10B5002805D002F05AF84A
:100BE000BDE8104002F050BD0020FFF767FC000098
:100BF000014800F041B90000300B0020014800F02E
:100C00003BB90000900B00200168CAB2103A1823CB
:100C1000B2FBF3F2064B9B5CC3656FF30901032A39
:100C200002D9091D816500E08165806D7047000073
:100C30000173000810B5014600208A6A8B694FF0E5
:100C4000C074002B0ED0B3F5005F1AD062B3012A36
:100C50002AD0022A28D0032A03D1C96AC90100D5A3
:100C6000012010BD1AB1012A06D0022AF9D1C96AA1
:100C7000C901F6D5012010BDC96AA142FBD10120EE
:100C800010BD52B1012A0AD0022A06D0032AF7D198
:100C9000C96AA142F4D1012010BD012010BDC96A6A
:100CA000C901FBD5012010BD012010BD30B504687D
:100CB000256825F480252560046863608368402BDF
:100CC00004D0036899600068C26030BD03689A6010
:100CD0000068C16030BD704710B5C16800220123B3
:100CE00091ED040A0224B5EEC00AF1EE10FA01DD1E
:100CF0004A6007E0B5EEC00AF1EE10FA01D24B608F
:100D000000E04C60016991ED040AB5EEC00AF1EE15
:100D100010FA01DD4A6007E0B5EEC00AF1EE10FA04
:100D200001D24B6000E04C60416991ED040AB5EEE0
:100D3000C00AF1EE10FA01DD4A6007E0B5EEC00A24
:100D4000F1EE10FA01D24B6000E04C60806990ED4A
:100D5000040AB5EEC00AF1EE10FA01DD426010BDE2
:100D6000B5EEC00AF1EE10FA01D2436010BD446046
:100D700010BD012000F038BA102000F035BA72B66C
:100D800070472DE9F0410446A76D00F02FFB0546A2
:100D900094F835000026022806D08020606584F88B
:100DA00034600120BDE8F0812068016821F016015F
:100DB00001602068416921F080014161206C08B91F
:100DC000A06C20B12068016821F008010160206852
:100DD000016821F0010101600BE000F007FB401BFE
:100DE000052806D920203434206203206070267044
:100DF000D8E720680068C007EFD134343F2094F86A
:100E000028108840B8600120607026700020C9E773
:100E100070B50446002C2AD094F83500022828D05A
:100E20002068016821F0010101602068002505604B
:100E300020684560206885602068C560206805617D
:100E40002168212048612046FFF7DEFE3434A5608A
:100E5000E56025616561A561E56194F828203F2181
:100E600091408160256265702570002070BD012071
:100E700070BD022070BD00002DE9F84304464FF01C
:100E80000009CDF800906F484FF416510068B0FB90
:100E9000F1F7A56D2E6894F85C00082202FA00F1C3
:100EA000314210D02068016849070CD5016821F053
:100EB0000401016094F85C0002FA00F1A960606D21
:100EC00040F00100606594F85C104FF0010808FAEA
:100ED00001F0304208D021684969090604D5A860AC
:100EE000606D40F00200606594F85C10042088405A
:100EF000304208D021680968890704D5A860606D70
:100F000040F00400606594F85C1010208840304286
:100F100020D02168096809071CD5A86020680168ED
:100F200049030CD50068000304D4216C91B120461C
:100F300088470FE0A16C69B1204688470AE0016844
:100F4000C90503D4016821F008010160216C09B1D1
:100F50002046884794F85C102020884030424CD0CE
:100F600021680968C90648D5A86094F835000528A5
:100F70000BD020680168490330D50068000328D4ED
:100F8000616C51B32046884737E02068016821F042
:100F9000160101602068416921F080014161206CE7
:100FA00008B9A06C20B12068016821F00801016037
:100FB00094F85C103F208840A86084F8358084F85D
:100FC0003490216D00293BD001B02046BDE8F043AC
:100FD0000847E16B09B1204688470EE00168C90562
:100FE00007D4016821F01001016084F8358084F88D
:100FF0003490E16B09B120468847606D00281FD00E
:10100000606DC00714D0052084F8350020680168A1
:1010100021F0010101600098401C0090B84203D803
:1010200020680068C007F6D184F8358084F83490D1
:10103000E16C002904D001B02046BDE8F043084728
:10104000BDE8F883080200202DE9F041044600F0D5
:10105000CDF905465CB1022084F83500002684F8FD
:1010600034602068016821F0010101600DE0012079
:10107000BDE8F08100F0BAF9401B052805D9202011
:101080006065032084F83500F2E720680068C00737
:10109000F0D121680A6820480240D4E901031843CE
:1010A000D4E903352B43184363691843A3691843F4
:1010B000E3691843236A18431043626A042A03D180
:1010C000D4E90B231A43104308602068406920F0DC
:1010D0000700656A29460543012704290DD1A06A46
:1010E0000543E06A48B12046FFF7A4FD28B140203F
:1010F000606584F835700120BAE7206845612046B4
:10110000FFF782FD94F85C203F2191408160666585
:1011100084F835700020ABE73F8010F02DE9F041F6
:1011200004460025A66D94F8340001280DD0012056
:1011300084F8340094F835700020012F07D084F82B
:10114000340002252846BDE8F0810220FBE7022793
:1011500084F8357060652046FFF7A8FD94F85C10B0
:101160003F208840B0602068016841F016010160AE
:10117000206C20B12068016841F0080101602068FE
:10118000016841F001010160DCE7000070B5044630
:1011900000F02CF90546601C02D004480078044495
:1011A00000F024F9401BA042FAD370BDFC010020DE
:1011B00070B504464FF4167003F068FB012300225B
:1011C0000848102C03D101688D783DB18A70012C3C
:1011D00003D10068417819B1427070BD8B7070BD49
:1011E000437070BD0000002010B504490A68024237
:1011F00002D00860FFF7DCFF10BD0000143C014086
:101200002DE9F84F0022DFF89C914FF001080327E9
:101210004FF00F0C09F1040AA9F1040B08FA02F5CA
:101220000B682B40AB426ED10C7904F00304012C07
:1012300001D0022C15D18668540007FA04FE26EA74
:101240000E06D1F80CE00EFA04FE4EEA060EC0F8C7
:1012500008E04468AC430D79C5F30015954025437B
:1012600045600C79E443A40708D0C568540007FA28
:1012700004F6B5438E68A6402E43C6600C7904F090
:101280000304022C11D1D40800EB8406356A5407FC
:10129000E40E0CFA04FE25EA0E05D1F810E00EFA71
:1012A00004FE4EEA050EC6F820E00568540007FA71
:1012B00004F6B5430E7906F00306A6402E430660F9
:1012C0004C6814F4403F67D0374C256845F480459E
:1012D0002560246804F480440094344C22F0030513
:1012E0002E19D6F8085894074FEA147E0CFA0EF41B
:1012F000A5432F4CA04201D1002424E02D4CA04254
:1013000002D101241FE047E02B4CA04201D102246E
:1013100019E02A4CA04201D1032414E0284CA04239
:1013200001D104240FE0274CA04201D105240AE09A
:10133000254CA04201D1062405E0244CA04201D155
:10134000072400E0082404FA0EF42C43C6F80848E9
:10135000D9F800409C434D68ED0200D51C43C9F804
:101360000040DAF800409C434D68AD0200D51C43B4
:10137000CAF80040DBF800409C434D68AD0300D53F
:101380001C43CBF80040074D083D2C689C434E6839
:10139000F60300D51C432C60521C102AFFF43EAF0C
:1013A000BDE8F88F083C014044380240003001405D
:1013B000000002400004024000080240000C02400D
:1013C000001002400014024000180240001C0240BD
:1013D0000069084201D00120704700207047002AB0
:1013E00001D08161704709048161704701488068BC
:1013F00070470000FC01002070B50446002C04D0AA
:1014000094F83D00002510B106E0012070BD84F87D
:101410003C50204600F060F9242084F83D0020680C
:10142000016821F0010101602068016841F4004178
:1014300001602068016821F40041016000F002FBB6
:101440004F4B6168994203D84E49884203D304E068
:101450004D49884201D2012070BD4C49B0FBF1F1E9
:101460002268566826F03F060E43566062689A422C
:1014700001D8491C07E04FF4967251434FF47A7239
:10148000B1FBF2F1491C2268166A26F03F0631438F
:1014900011626168994210D84900401EB0FBF1F218
:1014A000521CC2F30B02042A01D2042022E0B0FB3A
:1014B000F1F0401CC0F30B001CE0A268F2B301EB9A
:1014C000C10303EB0116431EB3FBF6F35B1C43F4AD
:1014D00080431B0549D092B301EBC10202EB01111D
:1014E000401EB0FBF1F0401CC0F30B0040F4804004
:1014F00040F400402168CA694CF6FF739A431043D8
:10150000C861D4E9071001432068026822F0C002D4
:1015100011430160D4E9030101432068826848F265
:10152000FF339A4311438160D4E9051001432068D9
:10153000C26822F0FF021143C16001E00EE016E034
:101540002068016841F0010101602564202084F8D1
:101550003D00256384F83E50002070BD01EB41063C
:10156000431EB3FBF6F35B1CB3E70120C2E701EBBC
:101570004101401EB0FBF1F0401CC0F30B00B7E787
:10158000A086010080841E0000093D0040420F003B
:101590002DE9F84F04468A4615469946DDF828801D
:1015A000FFF724FF064694F83D00202802D00220D1
:1015B000BDE8F88F1923012245492046009601F025
:1015C000B0FA08B10220F3E794F83C00012807D0F4
:1015D000012084F83C0020680168C90702D005E0BA
:1015E0000220E5E7016841F001010160206801681F
:1015F00021F400610160212084F83D00102084F86E
:101600003E00002727646562A4F82A90608D20853B
:101610003048E062334642465146204601F002FA25
:1016200008B10120C4E720684169806900903EE06C
:1016300032464146204601F005FB48B1206C0428A3
:1016400004D12068016841F4007101600120AFE716
:10165000606A216800780861656A6D1C6562608D4A
:10166000401E6085208D401E80B220852268516911
:10167000C94349070BD450B128781061606A401CF7
:101680006062608D401E6085208D401E2085324640
:101690004146204601F01EFA48B1206C042804D1CE
:1016A0002068016841F400710160012080E7208D0D
:1016B0000028BDD11F3454F81F0C016841F400719B
:1016C00001602020A077E7776777002070E70000AF
:1016D000020010000000FFFF10B586B00446142180
:1016E00001A8FEF7BDFF13492068884220D10021E0
:1016F0001148026842F002020260006800F0020035
:101700000090C020019012200290039103200490C9
:101710000420059001A90948FFF772FD0648103022
:10172000016841F400110160006800F400100090AD
:1017300006B010BD005400403038024000040240A2
:10174000024881680278114481607047FC010020E2
:1017500010B50B48016841F400710160016841F463
:1017600080610160016841F480710160032000F034
:101770008DF80F2000F006F800F03EF8002010BDB4
:10178000003C024010B588B001460022192000F04C
:101790005DF8192000F04CF800241348016841F06E
:1017A00001010160006800F00100019002A903A896
:1017B00000F024F900F056F940000C49B0FBF1F1BB
:1017C000491E0C480A4A026040F2E732C26041609A
:1017D0000461846000F0B6FB10B1012008B010BDB8
:1017E000044800F029FCF9E74438024040420F0069
:1017F00000000140F00B002082B00C48016841F469
:1018000080410160006800F4804001900748001F9B
:10181000016841F080510160006800F08050019043
:1018200000220F21901E02B000F010B84438024090
:10183000002809DB00F01F020121914040098000CF
:1018400000F1E020C0F8001170470000F0B40D4630
:101850000D4B1B68C3F30223C3F10704042C00D90A
:101860000424191D072901D2002300E0DB1E0126F4
:1018700006FA04F1491E294099409E40761E164002
:101880003143F0BC02F0B5BF0CED00E000F0070101
:10189000054A10684FF6FF03184040EA012003494B
:1018A00008431060704700000CED00E00000FA05EE
:1018B0002DE9F04704460D46002C13D0DFF828919F
:1018C000D9F80000EFB200F00700A8420CD289F866
:1018D0000070D9F8000000F00700A84204D00120F1
:1018E000BDE8F0870120FBE72068404E810712D554
:1018F000400703D5306840F4E0503060207800079E
:1019000003D5306840F4604030603068A16820F052
:10191000F000084330602078C00731D03349606858
:101920000839012808D002280BD0032809D00968FB
:1019300089070BD40120D3E70968890306D4012065
:10194000CEE70968890101D40120C9E7316821F097
:10195000030101433160FFF749FD804641F2883AB7
:1019600007E0FFF743FDA0EB0800504501D9032035
:10197000B6E73068616800F00C00B0EB810FF0D181
:10198000D9F8000000F00700A84209D989F80070D2
:10199000D9F8000000F00700A84201D001209FE71D
:1019A0002078400705D53068E16820F4E05008430E
:1019B00030602078000706D53068216920F4604047
:1019C00040EAC100306000F05DF83168084AC1F3B8
:1019D0000311515CC8400749086007480068FFF7D9
:1019E000D1FE00207CE70000003C024008380240A5
:1019F0000973000808020020000200200F22026084
:101A00000B4A136803F003034360136803F0F00309
:101A10008360136803F4E053C360126802F4604209
:101A2000D20802610348006800F0070008607047B0
:101A300008380240003C024001480068704700003E
:101A40000802002000B5FFF7F7FF04490968044ABF
:101A5000C1F38221515CC84000BD0000083802403B
:101A60001973000800B5FFF7E7FF04490968044A45
:101A7000C1F34231515CC84000BD0000083802404B
:101A80001973000810B51748006810F00C011648CB
:101A900016D0164B042912D0082911D1114C241F3D
:101AA000216801F03F02216849020AD52068C0F38D
:101AB0008810A0FB03010023FEF789FC09E018460B
:101AC00010BD21680023C1F38811A1FB0001FEF7BE
:101AD0007EFC2168C1F30141491C4900B0FBF1F0D3
:101AE00010BD0000083802400024F40040787D0159
:101AF0002DE9F84F0446002C13D02078DFF8A0839E
:101B0000C007A8F1040556D008F104000168C1F32C
:101B1000810101290CD00068C0F38100022803D0A4
:101B20000DE00120BDE8F88FD8F80000400206D58E
:101B3000286880033FD5606870BB0120F2E76068C9
:101B4000B0F5803F10D0B0F5A02F12D0286820F457
:101B500080302860286820F4802028606068E0B128
:101B6000FFF744FC064614E0286840F48030286003
:101B7000F4E7286840F480202860286840F480302A
:101B80002860EBE7FFF732FC801B642801D90320B3
:101B9000C8E728688003F5D50DE0FFF727FC064667
:101BA00006E0FFF723FC801B642801D90320B9E776
:101BB00028688003F5D42078BA4F80074FF00009D9
:101BC00048D5B748001D016811F00C0F08D0006817
:101BD000C0F38100022813D1D8F8000040020FD4CE
:101BE0002868800704D5E068012801D0012099E722
:101BF0002868216920F0F80040EAC100286029E047
:101C0000E068B8B101203860FFF7F0FB064606E057
:101C1000FFF7ECFB801B022801D9032082E728682C
:101C20008007F5D52868216920F0F80040EAC10056
:101C300028600FE0C7F80090FFF7D8FB064606E0E3
:101C4000FFF7D4FB801B022801D903206AE728682C
:101C50008007F5D42078000729D5DFF844A2924800
:101C600061690AF1700A89B101210160FFF7BEFBC9
:101C7000064606E0FFF7BAFB801B022801D90320C5
:101C800050E7DAF800008007F4D510E0C0F80090C3
:101C9000FFF7ACFB064606E0FFF7A8FB801B022817
:101CA00001D903203EE7DAF800008007F4D4207859
:101CB000400778D54FF0000A79483C300068C000F2
:101CC0000BD477483C30016841F0805101600068D6
:101CD00000F0805000904FF0010ADFF8D0B1DBF83F
:101CE0000000C00514D4DBF8000040F48070CBF88D
:101CF0000000FFF77BFB064606E0FFF777FB801B43
:101D0000022801D903200DE7DBF80000C005F4D557
:101D1000634EA0686C3601280FD0052812D03068B9
:101D200020F001003060306820F004003060A068CE
:101D3000F8B1FFF75BFB834617E0306840F0010025
:101D40003060F4E7306840F004003060306840F004
:101D500001003060EBE7FFF749FBA0EB0B0141F21C
:101D60008830814201D90320DCE630688007F2D553
:101D700010E0FFF73BFB834609E0FFF737FBA0EBE2
:101D80000B0141F28830814201D90320CAE6306854
:101D90008007F2D4BAF1010F05D141483C30016807
:101DA00021F080510160A069C0B33D49091D096857
:101DB0004FF0FF36C1F38101022946D0022805D039
:101DC000C7F86090FFF712FB04463AE0C7F860904E
:101DD000FFF70CFB814607E0FFF708FBA0EB0900CB
:101DE000022801D903209DE628688001F4D4D4E9B3
:101DF00007010843616AA26A890106EB520241EABF
:101E00000241084394F82C1040EA0160C8F8000031
:101E100001203866FFF7EAFA044607E03DE0FFF7E5
:101E2000E5FA001B022801D903207BE6286880011F
:101E3000F5D532E0FFF7DAFA001B022801D90320BA
:101E400070E628688001F5D427E0012823D0D8F86F
:101E50000000E26900F4800191421AD1226A00F088
:101E60003F01914215D147F6C071626A0140B1EB62
:101E7000821F0ED1A26A00F4403106EB5202B1EB90
:101E8000024F06D194F82C1000F07060B0EB016F97
:101E900003D0012046E6012044E6002042E600008F
:101EA0000438024000004742800E47420070004064
:101EB0007047704770B590F83C20012A31D0012658
:101EC00080F83C60022280F83D20026854689368E4
:101ED00024F070050C682C435460134C0268A24235
:101EE00014D0B2F1804F11D0104CA2420ED0104C41
:101EF000A2420BD00F4CA24208D00F4CA24205D0F8
:101F00000E4CA24202D00E4CA24204D123F0800318
:101F10004968194391603C304670002101700020EF
:101F200070BD022070BD00000000014000040040B0
:101F300000080040000C0040000401400040014047
:101F40000018004010B50446002C03D094F83D0062
:101F500010B107E0012010BD002084F83C002046AD
:101F600000F016F8022084F83D00211D206802F0E0
:101F70006BF801203D3460726070A070E0702071D9
:101F80006071A071E07120722070002010BD00000F
:101F900008B500682349B0F1804F0BD0224A904227
:101FA00011D1086840F008000860086800F00800D7
:101FB000009008BD086840F001000860086800F063
:101FC0000100009008BD174A184B121D984211D10C
:101FD000106840F400301060106800F40030009089
:101FE00000220F211920FFF731FCBDE8084019201D
:101FF000FFF71EBC0E4B984208D1106840F48020B9
:102000001060106800F48020009008BD094A9042DA
:10201000FBD1086840F080000860086800F080008C
:10202000009008BD40380240000C004000440140D0
:1020300000480140001C004090F83D10012901D0EB
:1020400001207047022180F83D100168CA6842F003
:102050000102CA6000681449884214D0B0F1804F70
:1020600011D0124988420ED0114988420BD0114933
:10207000884208D01049884205D01049884202D0D1
:102080000F49884209D1816801F00701062908D06B
:10209000016841F00101016003E0016841F00101C4
:1020A0000160002070470000000001400004004073
:1020B00000080040000C00400004014000400140C6
:1020C0000018004070B50446002594F83C00012833
:1020D00017D0012684F83C60022084F83D00206877
:1020E000826822F0770222F47F42826008685028DA
:1020F00038D00DDC202853D005DC90B3102811D146
:102100004EE0022070BD30284AD040280AD13DE080
:10211000602831D070280CD0B0F5805F03D0B0F5C6
:10212000005F12D001253C346670002020702846E4
:1021300070BDCB68D1E90121206801F0F8FF20686B
:10214000816841F077018160EDE7CB68D1E9012139
:10215000206801F0ECFF2068816841F480418160D3
:10216000E1E71DE0CA684968206802F009F95021DA
:10217000206801F0E6FFD6E7CA684968206802F0E7
:1021800010F96021206801F0DCFFCCE7CA684968DB
:10219000206802F0F5F84021206801F0D2FFC2E784
:1021A00022680146104601F0CCFFBCE7704770B5CD
:1021B0000446206801694FF00005C943890716D419
:1021C000C168C943890712D4E91E01610120207743
:1021D00020688069800703D02046FFF7E7FF05E00D
:1021E000204600F023F9204600F0B3F92577206857
:1021F0000169C943490718D4C168C943490714D4C0
:102200006FF004010161022020772068806910F4DA
:10221000407F03D02046FFF7C9FF05E0204600F0CD
:1022200005F9204600F095F9257720680169C94332
:10223000090717D4C168C943090713D46FF008010F
:102240000161042020772068C069800703D0204600
:10225000FFF7ACFF05E0204600F0E8F8204600F06C
:1022600078F9257720680169C943C90618D4C1687F
:10227000C943C90614D46FF010010161082020770A
:102280002068C06910F4407F03D02046FFF78EFF1E
:1022900005E0204600F0CAF8204600F05AF92577FC
:1022A00020680169C943C90708D1C168C943C90782
:1022B00004D1891E0161204600F0F8F92068016907
:1022C000C943090609D4C168C943090605D46FF09A
:1022D000800101612046FFF7EBFD20680169C943D9
:1022E000490609D4C168C943490605D46FF04001C5
:1022F0000161204600F00CFA20680169C943890693
:102300000BD4C168C943890607D46FF0200101616D
:102310002046BDE87040FFF7CCBD70BD70B586B0FB
:102320000446142101A8FEF79BF921680023384ACE
:1023300002243848B1F1804F15D0374DA94225D13C
:10234000116841F001011160116801F00101009173
:1023500004210191029403930493059401A9FEF7CB
:102360004FFF06B070BD116841F0010111601168A6
:1023700001F0010100912021019102940393049343
:102380000121059101A9FEF73BFFEAE7234E032552
:102390002348B14211D1116841F020011160116848
:1023A00001F02001009140210191029403930493D4
:1023B000059501A9FEF724FFD3E71A4EB14211D1CA
:1023C000116841F020011160116801F020010091B5
:1023D00080210191029403930493059501A9FEF7CE
:1023E0000FFFBEE7104DA942BBD1116841F020019B
:1023F0001160116801F020010091A915019102946A
:10240000039304930921059101A9FEF7F9FEA8E7BA
:102410003038024000000240000C004000440140FF
:102420000014024000480140001C0040704770B595
:1024300004460D46002694F83C0001280FD00120E8
:1024400084F83C006AB1042A1FD0082A32D00C2A32
:1024500044D00126002084F83C00304670BD0220A4
:1024600070BD2946206801F075FE2068816941F041
:10247000080181612068816921F00401816120687F
:1024800081692A6911438161E4E72946206801F0E6
:1024900095FE2068816941F400618161206881694D
:1024A00021F480618161206881692A6941EA022101
:1024B0008161CFE72946206801F0BAFE2068C16932
:1024C00041F00801C1612068C16921F00401C161C6
:1024D0002068C1692A691143C161BBE729462068A8
:1024E00001F0DEFE2068C16941F40061C16120682D
:1024F000C16921F48061C1612068C1692A6941EA2A
:102500000221C161A6E710B50446002C03D094F85F
:102510003D0010B107E0012010BD002084F83C0010
:10252000204600F015F8022084F83D00211D2068A7
:1025300001F08AFD01203D3460726070A070E0708F
:1025400020716071A071E07120722070002010BDB8
:102550007047704710B50446002909D004290AD0F5
:1025600008290BD094F8410001280AD0012010BDA1
:1025700094F83E00F8E794F83F00F5E794F840003F
:10258000F2E70220A9B3042937D0082938D084F80B
:1025900041000122206801F0BDFD1E4920681E4A4D
:1025A000884201D0904203D1436C43F4004343641A
:1025B0002068884213D0B0F1804F10D0174988426C
:1025C0000DD0174988420AD01649884207D0904258
:1025D00005D01549884202D01449884213D1816838
:1025E00001F00701062912D0016841F001010160E4
:1025F0000DE0FFE784F83E00CBE784F83F00C8E732
:1026000084F84000C5E7016841F001010160002045
:1026100010BD000000000140000401400004004023
:1026200000080040000C004000400140001800403D
:1026300030B504460D4600222946206801F06AFDA7
:10264000184A41F2111120688B10904202D0164AAC
:10265000904209D1026A0A4206D1026A1A4203D1A3
:10266000426C22F4004242642068026A0A4206D1A7
:10267000016A194203D1016821F0010101600120C2
:102680003DB1042D08D0082D09D084F84100002068
:1026900030BD84F83E00FAE784F83F00F7E784F89D
:1026A0004000F4E7000001400004014000680349D5
:1026B000884201D1FFF744B8704700000000014094
:1026C00070B5044694F83C0001280FD0012584F829
:1026D0003C50022084F83D00204601F00BFE002112
:1026E00030B13C3465702170012070BD022070BD96
:1026F0002068C26822F04002C2602068C26822F4EA
:102700008042C26084F83D5084F83C10002070BDC7
:102710007047704710B5044620684069C0F3C01088
:1027200094F83D10212911D180B12068143050E86F
:10273000001F21F0800140E80012002AF5D1606BF3
:1027400008B1FEF71EFB204601F0D7FE2068406965
:10275000C0F3801094F83E10222911D180B1206876
:10276000143050E8001F21F0400140E80012002A18
:10277000F5D1A06B08B1FEF704FB204601F096FEF0
:10278000002010BD704770B50446002C04D094F8AA
:102790003D00002510B106E0012070BD84F83C50DA
:1027A000204600F023F8242084F83D002068C1680A
:1027B00021F40051C160204601F0AEFE206801699D
:1027C00021F4904101612068416921F02A014161B1
:1027D0002068C16841F40051C1602564202084F85C
:1027E0003D0084F83E00002070BD00002DE9F0415E
:1027F00086B00546142101A8FDF732FF3B49286841
:10280000884270D100263A48016841F400310160E5
:10281000006800F40030009035481038016841F03D
:1028200001010160016801F001010091016841F0BE
:1028300008010160006800F0080000900820019085
:102840000227029703964FF00308CDF81080072463
:10285000059401A92748FEF7D3FC20200190029798
:102860000396CDF81080059401A92348FEF7C8FC13
:10287000234C224820604FF00068C4F80480A66012
:10288000E660071527616661A661E6614FF4403096
:10289000206266622046FEF7D7FB08B1FEF76FFAAA
:1028A000AC63A5631548164C183060342060C4F83A
:1028B00004804020A060E66027616661A661E66151
:1028C0008002206266622046FEF7BEFB08B1FEF77A
:1028D00056FA6C63A563002205212620FEF7B6FF99
:1028E0002620FEF7A5FF06B0BDE8F08100440040B9
:1028F0004038024000000240000C02408860024064
:10290000300B002090F83E30202B01D00220704781
:1029100059B152B190F83C30012B08D0012380F816
:102920003C300023036301F081BE01207047022088
:102930007047704770472DE9F84304460E46154628
:102940001F4694F83D00202802D00220BDE8F883FD
:10295000C6B1BDB194F83C00012815D0012084F81F
:102960003C004FF00009C4F84090212084F83D005D
:10297000FEF73CFD8046A584E584A068B0F5805F45
:1029800004D005E00120E1E70220DFE7206920B163
:102990003546002684F83C9013E00025FAE74346CC
:1029A000002280212046009701F08CFE08B1032010
:1029B000CCE79DB1216815F8010B4860E08C401E02
:1029C000E084E08C0028EAD14346002240212046E2
:1029D000009701F077FE40B10320B7E736F8020B0D
:1029E0002168C0F308004860E8E7202084F83D0033
:1029F0000020ABE7FEE701684A69D24352050FD4D5
:102A00006FF480624A61002140F8301F2022427337
:102A10008173026942F00402026101730120704770
:102A200000207047F8B504460D4617461E46E06A7A
:102A3000082808D0012806D010F5803F03D0206B6D
:102A4000122806D00AE02068016841F48071016014
:102A500004E02068016841F4807101603B46002277
:102A60004FF001112046009600F05BF840B120685D
:102A70000068C00502D54FF4007020640320F8BD43
:102A80002069B0F5804F0FD005F44070F02141EA85
:102A9000D0102168086133463A460D49204600F0BF
:102AA0007DF830B10120F8BD216805F0FE00086115
:102AB00002E02168E8B20861054933463A46891FB9
:102AC000204600F06BF808B10120F8BD0020F8BDE9
:102AD0000800010070B504460D4616460DE020467C
:102AE000FFF789FF08B1012070BD681C05D0FEF713
:102AF0007DFC801BA84207D835B120684069C043DF
:102B00004007ECD4002070BD002044F8300F202195
:102B10006173A073216941F02001216120730120BC
:102B200070BD2DE9F0470446DDF820900E46904632
:102B30001D46C6F3074708E0681C06D0FEF756FCA2
:102B4000A0EB0900A8420FD875B1012F19D0206859
:102B5000806926EA00000004000C1DD000204045DA
:102B6000EAD00020BDE8F087002044F8300F202193
:102B70006173A073216941F020012161207301205C
:102B8000F0E72068406926EA00000004000C01D04C
:102B90000020E4E70120E2E70120E0E72DE9F0472B
:102BA00004460E46154698464FF000094FF0200A9D
:102BB000C6F3074725E020684069C043400517D4A5
:102BC0002068016841F40071016021686FF4806041
:102BD0004861C4F8309084F83DA084F83E90206CA1
:102BE00040F00400206484F83C900120BDE8F087A8
:102BF000681C06D0FEF7FAFBA0EB0800A8420BD831
:102C000055B1012F16D02068806926EA0000000423
:102C1000000CD0D10020E9E7C4F8309084F83DA042
:102C200084F83E90206C40F02000206484F83C90B2
:102C30000120DBE72068406926EA00000004000C60
:102C4000E8D0B8E770B504460D4616460DE02046BC
:102C5000FFF7D1FE08B1012070BD681C05D0FEF75A
:102C6000C5FB801BA84207D835B120684069C04326
:102C70000006ECD4002070BD002044F8300F202165
:102C80006173A073216941F020012161207301204B
:102C900070BD000010B500212E2001F043FE002081
:102CA00000F040FE00F060FE6420FEF76FFA00F0D6
:102CB0008FFD09A20221032000F016FF00F054FE50
:102CC0004FF4FA70FEF762FA084800F00AFDBDE81A
:102CD0001040002000F037BD496E697465642053D0
:102CE00075636365737366756C6C79006C6E000850
:102CF00070B50F4D4FF480412846FEF769FB0D4C2F
:102D000020604FF400512846FEF762FB6060A91472
:102D10002846FEF75DFBA060E914074D2846FEF744
:102D200057FBE06004212846FEF752FB206170BD8E
:102D300000180240140000200010024008B50D48A1
:102D4000016841F400110160006800F40010009077
:102D5000002205211020FEF779FD1020FEF768FD06
:102D6000002205211120FEF771FDBDE80840112069
:102D7000FEF75EBD3038024010B590B0124803C86F
:102D8000CDE90E01002201210EA801F01DFE0F4C1D
:102D9000A060462101F036FE1C220B49083107A82D
:102DA000FDF70AFC002107A801F0E1FD20601C22CC
:102DB000054924316846FDF7FFFB0021684601F014
:102DC000D6FD606010B010BDE0680008040000206F
:102DD0002DE9F04F87B0142102A8FDF741FC002532
:102DE0006248016841F010010160016801F01001C2
:102DF0000191016841F020010160016801F02001AA
:102E00000191016841F080010160016801F08001D9
:102E10000191016841F001010160016801F00101C7
:102E20000191016841F002010160016801F00201B5
:102E30000191016841F004010160016801F00401A1
:102E40000191016841F008010160016801F0080189
:102E50000191016841F040010160006800F040000C
:102E60000190DFF80CB1012202215846FEF7B7FAB3
:102E70004FF40068012241463E48FEF7B0FA4FF495
:102E80004069012249463C48FEF7A9FA0122C421C3
:102E90003A48FEF7A4FA4FF4004A01225146384856
:102EA000FEF79DFA04200290039502240494354E07
:102EB00002A93046FEF7A4F9102002904FF48817BB
:102EC0000397049402A93046FEF79AF90126029668
:102ED0000397049402A92C48FEF792F902940396F2
:102EE0000495059402A95846FEF78AF9CDF80880A2
:102EF00003960495059402A91E48FEF781F9CDF8C2
:102F0000089003960495059402A91B48FEF778F9EA
:102F1000C420029003960495059402A91748FEF771
:102F20006FF94FF4F04002900395049402A91448FD
:102F3000FEF766F9CDF808A003960495059402A95A
:102F40000F48FEF75DF9062100220846FEF77EFCD9
:102F50000620FEF76DFC002206210A20FEF776FC13
:102F60000A20FEF765FC07B0BDE8F08F303802405C
:102F7000000402400014024000080240000C02401D
:102F800000180240001002400000024010B50D4839
:102F90000B4901600C49416000218160C1604FF420
:102FA0008042026141618161C1610162FEF724FAE0
:102FB000002803D0BDE81040FDF7E1BE10BD0000C1
:102FC0000054004030090020A086010010B588B0F0
:102FD0001C2101A8FDF744FB154814490160A721F5
:102FE0004160002484604FF6FF71C1600461846118
:102FF000FEF7A8FF08B1FDF7C2FE0D48FFF783FA00
:1030000008B1FDF7BCFE6020019002940394059482
:10301000002201A90648FFF70AFA08B1FDF7AFFE42
:103020000348FFF77BF908B010BD000000440140E1
:10303000140A002010B588B01C2101A8FDF710FB70
:10304000154814490160A7214160002484604FF6AF
:10305000FF71C16004618461FEF774FF08B1FDF780
:103060008EFE0D48FFF74FFA08B1FDF788FE60208D
:103070000190029403940594002201A90648FFF7E9
:10308000D6F908B1FDF77BFE0348FFF747F908B012
:1030900010BD0000004801405C0A002010B588B057
:1030A0001C2101A8FDF7DCFA154814490160A7218D
:1030B0004160002484604FF6FF71C1600461846147
:1030C000FEF740FF08B1FDF75AFE0D48FFF71BFA67
:1030D00008B1FDF754FE602001900294039405941A
:1030E000002201A90648FFF7A2F908B1FDF747FE43
:1030F0000348FFF713F908B010BD0000001C0040A2
:10310000A40A002010B58EB0142109A8FDF7A8FA72
:103110000024079408941C216846FDF7A1FA1D4875
:103120004FF080410160A721416084604FF6FF713C
:10313000C16004618461FEF705FF08B1FDF71FFE61
:103140001448FFF7E0F908B1FDF719FE09940A9455
:1031500009A91048FFF7B4FA08B1FDF710FE07946B
:10316000089407A90B48FEF7A5FE08B1FDF707FE76
:10317000602000900194029404940022694605485E
:10318000FFF755F908B1FDF7FAFD0248FFF7C6F859
:103190000EB010BD8409002010B592B000240E942A
:1031A0000F9410941194142109A8FDF759FA07946B
:1031B00008941C216846FDF753FA23482149016011
:1031C00047214160846040F6B831C16004618021CC
:1031D0008161FEF7B7FE08B1FDF7D1FD4FF48050D5
:1031E0000E900EA91848FEF76DFF08B1FDF7C7FD58
:1031F0001548FFF788F908B1FDF7C1FD09940A9455
:1032000009A91148FFF75CFA08B1FDF7B8FD07946A
:10321000089407A90C48FEF74DFE08B1FDF7AFFD75
:1032200060200090019402940494082269460648A4
:10323000FFF7FDF808B1FDF7A2FD0348FFF76EF8B0
:1032400012B010BD000C0040CC09002010B50C4895
:103250000A4901604FF41651416000218160C1604C
:1032600001610C2242618161C161FFF78CFA002883
:1032700003D0BDE81040FDF782BD10BD0044004002
:10328000EC0A002070B504462DED028B606890EDCD
:10329000010A60EE000A90ED000A40EE000A10EE0E
:1032A000900A03F0A1FA41EC100B01F0B2FA51ECD4
:1032B000100B02F0EFFF6168C860606890ED010AD2
:1032C000D0ED000A90ED091A30EE600AD0ED080A40
:1032D00070EE810A90ED021AE06801EE600A80ED5E
:1032E000040A606890ED010AD0ED000A90ED091A19
:1032F00030EE200AD0ED080A70EE810A90ED021A35
:10330000206901EE200A80ED040A606890ED010A50
:10331000D0ED000A90ED091A30EE200AD0ED080A2F
:1033200070EE810A90ED021A606901EE600A80ED8C
:10333000040A606890ED010AD0ED000A90ED091AC8
:1033400030EE600AD0ED080A70EE810A90ED021AA4
:10335000A06901EE200A80ED040AE568286903F0FF
:1033600043FA9FED2B8B53EC182B02F0C5FF02F0B4
:1033700091FFA8602569286903F036FA53EC182BF1
:1033800002F0BAFF02F086FFA8606569286903F0C1
:103390002BFA53EC182B02F0AFFF02F07BFFA86072
:1033A000A569286903F020FA53EC182B02F0A4FF5A
:1033B00002F070FFA860E0689FED170AD0ED020AE6
:1033C000806960EE800AFDEEE00AC0ED010A206926
:1033D000D0ED020A806960EE800AFDEEE00AC0EDE1
:1033E000010A6069D0ED020A806960EE800AFDEE94
:1033F000E00AC0ED010AA069D0ED020A806920EE62
:10340000800ABDEEC00A80ED010ABDEC028B70BDE2
:103410004B0B4DC8BD2FE63F0000C343FEE710B580
:103420001C20FCF7A5FF044624B100F099FBA06125
:10343000204610BD002010BD0D4A11680160491CD6
:10344000116002214160DFED0B0AC0ED020AC0ED00
:10345000030AC0ED040AC0ED050A806940F6B831E0
:10346000DFED051AB0EE601AB1EE080A00F054BBA9
:1034700010000020000000000000FA442DE9F04791
:103480000446754BE068754DDE14406800287DD019
:1034900001287CD0002231461846FDF7A0FF00220B
:1034A00002212846FDF79BFF6D4840F6B8350560C0
:1034B000E06880694068002800DA404268494000BE
:1034C0000831086000216748FFF744F82069DFF8F9
:1034D0009891664F40684FF480614FF4004800288F
:1034E00078D0012875D000223846FDF778FF0022F9
:1034F00041464846FDF773FF5D48056020698069D5
:103500004068002800DA404259494000083108600C
:1035100000215848FFF71EF86069DFF85C814068B9
:1035200000286BD0012875D0002204214046FDF709
:1035300056FF002231463846FDF751FF4F480560DF
:10354000206980694068002800DA40424B49400009
:103550000831086000214A48FEF7FCFFE068406837
:10356000002862D001286BD0002280214046FDF760
:1035700036FF002240214046FDF731FF4FF08041E9
:10358000CD62E06880694068002801E00AE014E04C
:1035900000DA404240004863BDE8F0470021394866
:1035A000FEF7D8BF012231461846FDF718FF00226A
:1035B00002212846FDF713FF76E700223146184620
:1035C000FDF70DFF012202212846FDF708FF6BE7FA
:1035D00000E009E001223846FDF701FF00224146E4
:1035E0004846FDF7FCFE87E700223846FDF7F7FE68
:1035F000012241464846FDF7F2FE7DE70122042103
:103600004046FDF7ECFE002231463846FDF7E7FE66
:1036100094E7FFE7002204214046FDF7E0FE012287
:1036200031463846FDF7DBFE88E70122802140461F
:10363000FDF7D5FE002240214046FDF7D0FE9DE774
:10364000002280214046FDF7CAFE0122402140466B
:10365000FDF7C5FE92E7000000140240000402409E
:103660002C440140140A00200018024000080240C7
:103670002C4801405C0A0020000C02402C1C004039
:10368000A40A00208409002070B5134D134C2E1F8E
:1036900019E055F8201051B122684910D163226811
:1036A00055F82010D16255F82010E16006E022683C
:1036B00040F6B831D1632268D162E160401C3060CD
:1036C000AF20FDF763FD30684228E2D3BDE87040CB
:1036D00008210248FEF7ACBF2C000020CC090020D6
:1036E000FEE72DE9F04781460025002000F01AF999
:1036F00023E0002609EBC60000EBD5000778002484
:103700004FFA86F8380606D5281941B201224046FC
:1037100000F06EF805E0281941B20022404600F0A2
:1037200067F87806070E641CE4B2082CEAD3761C0E
:10373000F6B2802EDED30835EDB2402DD9D3BDE8E8
:10374000F04700F011B910B5044600212E2001F019
:10375000E9F814B1012C1DD034E00021272001F03C
:10376000E1F80021084601F0DDF80021084601F0EB
:10377000D9F80021072001F0D5F80021072001F039
:10378000D1F80021084601F0CDF80021FF2001F01A
:10379000C9F817E000212A2001F0C4F800210846EA
:1037A00001F0C0F80021084601F0BCF80021072014
:1037B00001F0B8F80021072001F0B4F80021012041
:1037C00001F0B0F80021BDE810402F2001F0AAB8A8
:1037D00010B500218D2001F0A5F80021142001F082
:1037E000A1F80021BDE81040AF2001F09BB8000017
:1037F00070B5802817D2002915DB3F2913DCCB17C1
:1038000001EB5375C5F3C70325F0070501240A4EE4
:10381000491B8C4006EBC000012A05D0022A07D0C4
:10382000C15CA143C15470BDC15C2143C15470BD92
:10383000C15C6140C15470BDB80C002010B50021BE
:10384000AE2001F06FF80021202001F06BF800217C
:10385000102001F067F80021B02001F063F800218A
:10386000C82001F05FF80021084601F05BF8002154
:10387000102001F057F80021402001F053F80021FA
:10388000812001F04FF80021FF2001F04BF80021CA
:10389000A12001F047F80021A62001F043F8002103
:1038A000A82001F03FF800213F2001F03BF8002163
:1038B000A42001F037F80021D32001F033F80021D3
:1038C000084601F02FF80021D52001F02BF8002147
:1038D000F02001F027F80021D92001F023F8002181
:1038E000222001F01FF80021DA2001F01BF800214E
:1038F000122001F017F80021DB2001F013F800215D
:10390000202001F00FF800218D2001F00BF800219C
:10391000142001F007F80021BDE81040AF2001F0AD
:1039200001B80000F0B500220E4C0021FF25002652
:1039300001280FD090B104EBC1039F5CC7F1FF07D2
:103940009F54491CC9B28029F2D3521CD2B2082A12
:10395000EBD3F0BD04EBC1039D54F2E704EBC103CC
:103960009E54EEE7B80C002070B50025084E0024E8
:1039700006EBC4000121405D00F0D4FF641CE4B2FA
:10398000802CF5D36D1CEDB2082DF0D370BD000076
:10399000B80C00202DE9F04F01EB810101F0FF0987
:1039A00000EB80004006040EA246203AD0B2002769
:1039B000174900EB400001EB800B1BF80760002566
:1039C0004FFA89F8300605D5012261B24046FFF76B
:1039D0000FFF04E0002261B24046FFF709FF7006C6
:1039E000060E641CE4B2A4EB0A000C2809D06D1C7E
:1039F000EDB2082DE6D37F1CFFB20C2FDDD3BDE85E
:103A0000F08F544609F1010909F0FF09F3E70000BE
:103A1000206900082DE9F74F81B001EB410149060B
:103A20004FEA116900EB40008006040EA3464FF0F8
:103A3000000A002703990AEB4A0001EB800000907E
:103A40000098C65D00254FFA89F8300605D5012299
:103A500061B24046FFF7CCFE04E0002261B240466E
:103A6000FFF7C6FE7006060E641CE4B2A4EB0B0062
:103A70000D2810D06D1CEDB2082DE6D37F1CFFB2CF
:103A80000C2FDDD30AF1010A0AF0FF0ABAF1120F76
:103A9000CFD3BDE8FF8F5C4609F1010909F0FF09AA
:103AA000ECE7000038B5FDEEC00A10EE904A303465
:103AB000F2EE040A0A2320EE200ABDEEC00A10EE40
:103AC000102A92FBF3F503FB1522303205A31B6885
:103AD00000938DF800408DF802206A4600F004F84B
:103AE00038BD0000002E0000F0B506460C46174613
:103AF00000250CE021463046FFF74CFF641CE4B281
:103B0000142C02D90024761CF6B26D1CEDB27A5D3D
:103B1000002AEFD1F0BD0000026882ED000A0268C1
:103B2000C2ED010A026882ED021A02689FED0B0ADB
:103B300082ED060A00EE101A0168B8EEC00A81EDA7
:103B4000070A026800215182BDEEE10A036810EE07
:103B5000102A9A8281606421416070470000000051
:103B600010B50C20FCF704FC044624B1FDF72CF83A
:103B70002060204610BD002010BD10B54220FCF78B
:103B8000F7FB0028FFD110BD4221FCF747BD10B55F
:103B90002820FCF7EDFB0028FFD110BD9FED080A9F
:103BA00080ED080A9FED070A80ED090A9FED060ADD
:103BB00080ED000A80ED010A80ED020A70470000E6
:103BC0000AD7233E0AD7A33D0000000010B51C20F1
:103BD000FCF7CEFB0446B4B1FFF7D9FF6060FFF7F6
:103BE000CCFFA060FFF71BFCE060FFF718FC206132
:103BF000FFF715FC6061FFF712FCA061204600F0A2
:103C000004F8204610BD002010BD10B50446002069
:103C100020706070A0706068FFF7C0FFA068FFF7B9
:103C2000B3FFE068FFF708FC2069FFF705FC606957
:103C3000FFF702FCA069BDE81040FFF7FDBB41782B
:103C4000012901D000F002B800F076B810B50021CB
:103C50000848FEF7EDFC00210748FEF7E9FC0021CB
:103C60000648FEF7E5FCBDE8104000210448FEF7D9
:103C7000DFBC0000140A00205C0A0020A40A002017
:103C80008409002010B5002400220121435C1A445D
:103C9000491C0729FADBD1B2C2798A4200D101243A
:103CA000002C42D04178827841EA02210AB2828710
:103CB000C178037941EA0321C1874179837941EAD7
:103CC0000321A0F84010194B19684C78012C2CD115
:103CD0008C78002C29D1A2F57A7200EE102A49685E
:103CE000F8EEC00A9FED120A80EE801A81ED001AEC
:103CF000B0F93E10A1F57A7100EE901A1968F8EE4D
:103D0000E00A4A6880EE801A82ED011AB0F940009C
:103D1000DFED080AA0F57A7000EE100A4868B8EEE8
:103D2000C00A80EE201A80ED021A10BD00000020AB
:103D30000000A0430000C84210B5044601202070D6
:103D4000A07801280CD16068B0EE080A80ED010A65
:103D500060689FED090A80ED000A606880ED020A44
:103D60002046FFF78FFA2046FCF7B6FF2046BDE855
:103D70001040FFF783BB00000000000070B5FEF7A5
:103D8000B7FF314C31480122216949B1E16839B1AD
:103D9000A16829B1616819B1216809B101680A7087
:103DA000A16839B1E3682BB163681BB123680BB913
:103DB000236913B1E2681AB108E00068027070BDAF
:103DC00023681BB100680321017070BD63682BB9C3
:103DD00025691DB100680221017070BD2569154378
:103DE00006D129B123B1216811B9026807211170E8
:103DF000216951B9E16841B1A16831B1616821B966
:103E0000216811B9016806220A70616839B1226817
:103E10002AB1A2681AB1E2680AB1226962B12269C4
:103E200032B1E26822B1A26812B109B1216839B198
:103E300000680021017070BD00680521017070BD2F
:103E400000680421017070BD1400002000000020F3
:103E500000F010F8012000F07DFDF9E7044CFFF7B9
:103E60008DFF2068FFF7EBFE012000F073FDF6E701
:103E70000000002010B500212E2000F053FD00208E
:103E8000FFF750FD204C20684078002830D00021FA
:103E90001EA20846FFF728FE2068807800282DD053
:103EA0001DA200210120FFF71FFE1EA200210220FB
:103EB000FFF71AFE20680A21406890ED030A0220ED
:103EC000FFF7F0FD1AA200210320FFF70DFE206886
:103ED0000A21406890ED070A0320FFF7E3FD174A27
:103EE00000210420FFF796FDBDE81040FFF73CBD20
:103EF000002113A20846FFF7F7FDCDE713A200212A
:103F00000120FFF7F1FDD0E7000000204D6F746F36
:103F1000723A4F6E000000004D6F64653A50617454
:103F2000726F6C0073706565645F7265663A00005D
:103F300073706565645F6664623A0000946D0008A2
:103F40004D6F746F723A4F66660000004D6F646586
:103F50003A426C7565546F6F7468000010B550205C
:103F600080F31188BFF34F8FBFF36F8F01F09EFF77
:103F700018B104494FF080500860002080F3118888
:103F800010BD000004ED00E030B593B0302107A86B
:103F9000FCF766FB142102A8FCF762FB00251D4814
:103FA000016841F080510160006800F0805001908C
:103FB0001948016841F480410160006800F48040C4
:103FC00001900224079401200A9010200B900D9478
:103FD0000E9508200F90402010901194042012900C
:103FE00007A8FDF785FD08B1FCF7C9FE0F20029078
:103FF000039404954FF4805005904FF4A050069020
:10400000022102A8FDF754FC002801D0FCF7B7FEFE
:1040100013B030BD403802400070004002480168D3
:1040200041F470010160704788ED00E010B504486C
:10403000FEF7BDF8BDE810400248FEF7B8B8000032
:10404000F00B0020140A00202DE9F0410268264DF3
:10405000264E274FDFF89CC0274B4FF08048A842E0
:1040600009D0404507D0B04205D0B84203D06045E2
:1040700001D0984203D122F070044A682243A8423A
:104080001BD0404519D0B04217D0B84215D060457A
:1040900013D0984211D0194CA0420ED0184CA04217
:1040A0000BD0184CA04208D0174CA04205D0174C9A
:1040B000A04202D0164CA04203D122F44074CA6838
:1040C00022434C6922F08002224302608A68C26265
:1040D0000A688262A84201D0984201D1096901634D
:1040E00001214161BDE8F081000001400004004071
:1040F00000080040000C0040000401400040014066
:10410000004401400048014000180040001C0040ED
:104110000020004010B501F01F0101238B40046A0C
:104120009C430462036A8A401343036210BD10B5C6
:10413000846824F47F4442EA03220A4322438260D3
:1041400010BD826822F070020A4342F007018160CC
:1041500070470000F0B5026A22F001020262026AB2
:104160004368846924F0700424F003050C682C4330
:1041700022F002058A682A430E4E0F4FB04201D04A
:10418000B84205D122F00805CA682A4322F0040289
:10419000B04201D0B84207D123F4807323F40073F6
:1041A0004D691D438B692B434360846149684163BA
:1041B0000262F0BD0000014000040140F0B5026A57
:1041C00022F010020262036A4268846924F4E04427
:1041D00024F440740D6844EA052423F020038D681C
:1041E00043EA0513104D114EA84201D0B04206D14A
:1041F00023F08003CF6843EA071323F04003A8426B
:1042000001D0B04209D122F4806222F400624D69EB
:1042100042EA85028D6942EA85024260846149680A
:1042200081630362F0BD0000000001400004014012
:10423000F0B5026A22F480720262026A4368C469BD
:1042400024F0700424F003050C682C4322F400725F
:104250008D6842EA0522104D104EA84201D0B042AE
:1042600006D122F40062CF6842EA072222F480627B
:10427000A84201D0B04209D123F4805323F4005363
:104280004D6943EA05138D6943EA05134360C46130
:104290004968C1630262F0BD0000014000040140B2
:1042A00030B5026A22F480520262046A4268C3692D
:1042B00023F4E04323F440730D6843EA052324F418
:1042C00000548D6844EA0534084DA84202D0084DD8
:1042D000A84204D122F480424D6942EA851242602C
:1042E000C36149680164046230BD00000000014000
:1042F0000004014070B500240268936823F0700543
:104300004B682B4323F007050B682B4393604A68E7
:1043100012F00F0F31D11211082A2ED2DFE802F06D
:104320002E2E2E2E0B2127040B69D1E902210068C5
:10433000FFF7FDFE22E00A68052A10D00268136A22
:10434000156A25F0010515620268956925F0F005EA
:10435000096945EA01119161006803620EE00120DC
:1043600070BD0A698968006800F00AF806E00A6909
:104370008968006800F015F800E00124204670BD4F
:1043800010B5036A046A24F001040462846924F00D
:10439000F00444EA021423F00A020A438461026230
:1043A00010BD10B5036A23F0100303628469036A29
:1043B00024F4704444EA023223F0A00343EA0111DA
:1043C0008261016210BD70B5846B20684069C0F3E2
:1043D000C01094F83D100025212904D118B1E584BE
:1043E000204600F08AF820684069C0F3801094F8F5
:1043F0003E10222904D118B1E585204600F056F878
:10440000206C40F0100020642046FEF7BBF970BD20
:1044100010B50146886B09680968C9052FD40021C9
:10442000C18501680C3151E8002F22F4807241E807
:104430000023002BF5D10168143151E8002F22F040
:10444000010241E80023002BF5D10168143151E845
:10445000002F22F0400241E80023002BF5D120215B
:1044600080F83E10016B012909D101680C3151E837
:10447000002F22F0100241E80023002BF5D1016B40
:10448000012902D0FEF755FA10BD818DFEF741F9E2
:1044900010BD10B5806B016B012902D0FEF74AFAFE
:1044A00010BD818D4908FEF734F910BD01680C314B
:1044B00051E8002F22F4907241E80023002BF5D13F
:1044C0000168143151E8002F22F0010241E8002375
:1044D000002BF5D1016B012909D101680C3151E89C
:1044E000002F22F0100241E80023002BF5D12021FB
:1044F00080F83E1000210163704701680C3151E8DB
:10450000002F22F0C00241E80023002BF5D120212A
:1045100080F83D10704700002DE9F0410446206806
:104520000169E26821F4405111430161A1682069E9
:10453000E26901436069104301432068C26849F29F
:104540000C639A430A43C26020684169A26921F45E
:1045500040711143416133492068884202D0324999
:10456000884202D1FDF77EFA01E0FDF76BFAE169BE
:104570000023192764253226B1F5004F28D0616841
:104580008B0F8A00A0FB0701FBF721FF0146B0FB60
:10459000F5F07A42504301EB800006EB0010B0FBCF
:1045A000F5F000F0F002B1FBF5F002EB0012B1FB08
:1045B000F5F07B42584301EB800006EB0010B0FBA6
:1045C000F5F0216800F00F0010448860BDE8F0812C
:1045D00061684A18A0FB07015B41FBF7F8FE014642
:1045E000B0FBF5F00201B1FBF5F06FF01803584392
:1045F00001EB800006EBC000B0FBF5F000F0F80026
:1046000002EB4002B1FBF5F0584301EB800006EBF2
:10461000C000B0FBF5F0216800F00700104488608E
:10462000D4E70000001001400014014037B582B00B
:1046300004461346039AA262A3850025256422201E
:1046400084F83E00A16B1C48C863A16B1B4808643A
:10465000A16B1B48C864A06B05652168A06B091D90
:10466000FCF75CFD206801684068019084F83C50CC
:10467000206948B120680C3050E8001F41F4807177
:1046800040E80012002AF5D12068143050E8001FDD
:1046900041F0010140E80012002AF5D120681430F1
:1046A00050E8001F41F0400140E80012002AF5D117
:1046B00005B0002030BD00001144000893440008FC
:1046C000C74300082DE9F04104460E4617469846B8
:1046D000069D25E0681C23D02DB1FCF787FEA0EBDA
:1046E0000800A8421CD920680C3050E8001F21F4B3
:1046F000D07140E80012002AF5D12068143050E84B
:10470000001F21F0010140E80012002AF5D120200D
:104710003C346070A070002020700320BDE8F08160
:104720002068006836EA000004D00020B842D1D0EA
:104730000020F3E70120F9E7014800F023B800006A
:10474000EC0A002010B50D4CA06BFCF761FB606B10
:10475000FCF75EFBA06BFCF777FC606BFCF774FC6E
:104760002068C16841F01001C160054864220068FA
:1047700081682046BDE81040FEF7C4B8EC0A00206E
:104780000000002038B5054628680168C9062AD50A
:104790000168406800901448016840682846FDF7A9
:1047A000B9FF124C206880680178A52902D1017AEE
:1047B0005A2915D02946FCF7E7F82068816801F1ED
:1047C0001E00FBF784FE206842218068FBF726FF6D
:1047D0002068642281682846BDE83840FEF792B818
:1047E000FFF750FAE9E738BD001001400000002053
:1047F000FEE70907090E002804DB00F1E02080F83D
:104800000014704700F00F0000F1E02080F8141D44
:10481000704700B52DED048BB0EE409AF0EE609A33
:1048200083B051EC190B01F013FF41EC180B18EE9B
:10483000100A18EE901A8DED008B002818BF012089
:10484000084320F00040C0F17F6000F1E040C00F5D
:1048500014D019EE101A19EE900A8DED009B002964
:1048600018BF0121084320F00040C0F17F6000F133
:10487000E040C00F04BF0120FBF7DCFFB0EE480AA8
:1048800003B0F0EE680ABDEC048B00BD06E03221F7
:10489000491EC9B20029FBD1401E80B20028F6D1C2
:1048A0007047EFF30580002801D0012070470020F9
:1048B00070470000FCF74CFFFFF766FBFEF788FA35
:1048C000FEF76AFCFEF782FBFEF7B4FBFEF7E6FBA1
:1048D000FEF75CFBFEF732FAFEF7B8FCFEF712FCBF
:1048E0004FF4FA70FCF752FC08210948FDF732FE3C
:1048F000FFF728FFFEF7A2FFFFF768F905490860F8
:10490000FCF769F9FEF738FA00F02CF8FEE7000032
:10491000CC0900200000002001460020842900D09E
:10492000C81C704708B5094A00290BD040211170F6
:1049300050700A2000900223044A78210448FCF7B2
:1049400027FE08BD00211170F2E7000034010020AD
:104950003009002010B5002800D1012000F060FED1
:10496000002010BD10B500F0C9FE002010BD7FB5BD
:1049700004460D466169B4F90800002910D0A16908
:1049800071B1FFF7C9FFD4E90521CDE901210090FC
:10499000D4E900102B46226901F046FA039010E09A
:1049A000FFF7BAFF03A9CDE90001208A2B4682B2A6
:1049B000D4E9001001F006FA012802D0002004B06A
:1049C00070BD0398FBE700001CB5134605C8002A1C
:1049D0000BD0CDE90002012905D00022012108A059
:1049E00001F0D6FB1CBD0122F8E70090012905D09B
:1049F0000022012102A001F0B1FB1CBD0122F8E759
:104A0000000000002DE9FC4107460C460025002669
:104A10000196002C00D10124FFF743FFA8B101ABA0
:104A2000224609213846009601F000FC012801D0F9
:104A3000FF2514E0019890B10A494FF080500860BA
:104A4000BFF34F8FBFF36F8F09E00023224604218D
:104A50003846009601F0EAFB012800D0FF252846E1
:104A6000BDE8FC8104ED00E02DE9F04104460F466D
:104A7000174EF5683068001D00F09CFC38B93068AE
:104A800090F82C1001208840316981433161601C0D
:104A900007D137B13168BDE8F041091D0D4800F07C
:104AA000D9BC2C4430684460AC4206D23168B06B4B
:104AB000091DBDE8F04100F0B5BC3168706B091DFF
:104AC00000F0B0FCB06A844200D2B462BDE8F0816C
:104AD0000C020020D411002070B5044600F0C6FC82
:104AE0001C4DA868401CA860286810B1686938B1DE
:104AF0000CE02C60A868012808D100F0B1F905E0AD
:104B00002868E16AC06A884200D82C60686A401C44
:104B10006862E06A01212A698140114329610E49D6
:104B200000EB800001EB8000211D00F093FC00F001
:104B3000BDFC686900280CD02868E16AC06A884218
:104B400007D206494FF080500860BFF34F8FBFF384
:104B50006F8F70BD0C020020F810002004ED00E003
:104B600038B500F083FC104C2068C8B90F4800F03D
:104B70004BFC0E48143000F047FC0C48E060143049
:104B800020610A4B0020C03B009003F148020C2139
:104B90000A2000F0ADFE206010B105A100F00AFD72
:104BA000BDE8384000F082BC48020020A812002076
:104BB000546D72510000000070B50C4D0C4E11E0A8
:104BC00000F054FCF068C468201D00F0F3FBA868F6
:104BD000401EA8606868401E686000F067FC2046C0
:104BE00000F053F868680028EAD170BD0C0200207C
:104BF000C011002030B40B46026C002A0CD0C168F2
:104C00001144C1608468A14201D30168C160C168D8
:104C100030BC1846FBF78BBC30BC70472DE9F04127
:104C2000044617460026A56B226C002A10D0C7B197
:104C3000E068FBF77CFCE168206C091AE1602268FF
:104C4000914202D2A168081AE060022F16D017E044
:104C50002068A8B9A06801F091F906460020A0607C
:104C60000EE06068FBF763FC216C606808446060DC
:104C7000A168884204D32068606001E005B16D1E20
:104C80006D1CA5633046BDE8F08110B5044694F86C
:104C9000510000280BD0012811D0022814D0502038
:104CA00080F31188BFF34F8FBFF36F8FFEE7206B48
:104CB00000F012FC2046BDE8104000F00DBC20467C
:104CC000BDE8104000F008BC10BD00000749CA68EC
:104CD0001168002904D00021016019B1002070473B
:104CE0000121F9E7D0680068704700004802002001
:104CF0004FF470510F48420706D0C01D20F0070046
:104D00000C49411AC1F570510B4A106000235360E1
:104D10000144083921F00701183A11604B600B601B
:104D20000B1A436001604068906050604FF0004093
:104D300050617047D012002074020020074E4FF0DF
:104D40008054074DFFF738FF30680128FAD92C60EE
:104D5000BFF34F8FBFF36F8FF4E70000F810002010
:104D600004ED00E003460098002905D00260C3630B
:104D70000164012100F0F2BD0060F8E72DE9F04781
:104D80008246DDE908580A9C9946521E206B00EBCA
:104D9000820020F00706700707D0502080F31188AA
:104DA000BFF34F8FBFF36F8FFEE7002761B1002085
:104DB00023180A5C83F834200A5C12B1401C1028C6
:104DC000F6D384F8437001E084F83470072D00D3E3
:104DD0000625E5626564A764201D00F020FB04F150
:104DE000180000F01CFB2461C5F10700A06164629B
:104DF000E76484F850704A465146304600F0C8FADD
:104E00002060B8F1000F01D0C8F80040BDE8F0877D
:104E10002DE9F0470646DDE908940D461746984609
:104E2000002D15D0002C11D0FFF79AFE2660A56149
:104E3000C4F81C80C4F82090201D00F0F0FA002F68
:104E400004D014F8240F40F004002070BDE8F0876F
:104E5000502080F31188BFF34F8FBFF36F8FFEE7B1
:104E600070B50024124D04EB840005EB800000F0C7
:104E7000CBFA641C072CF6D30D488C3000F0C4FA32
:104E80000B48A03000F0C0FA0948B43000F0BCFA7A
:104E90000748C83000F0B8FA0548DC3000F0B4FA32
:104EA000034904488C3141631431816370BD0000B3
:104EB000F81000200C02002030B5134900E0114624
:104EC0000A688242FBD34B685C18844203D1406875
:104ED0001844486008460D6844682318AB420DD159
:104EE000094B183B1B689A4206D052682244426024
:104EF0000A681268026002E0036000E0026081421A
:104F000000D0086030BD00007402002070B500249D
:104F1000416000610C4D91420AD8D11A82699142D8
:104F200001D301240EE0011D286900F07BFA09E09D
:104F30009A4203D2994201D3012403E0011DE8689B
:104F400000F070FA204670BD4802002010B50446FB
:104F500000F08CFAA06B20B1002400F0A7FA2046E4
:104F600010BD0124F9E710B5044600F07FFAA06BEC
:104F7000E16B884201D1012400E0002400F096FAA0
:104F8000204610BDF8B505460E461748C068C068F3
:104F9000C468201D00F00EFA94F82400410718D5CB
:104FA000A0692B46411932462046FFF7AFFFA0B15A
:104FB00000200346014600902A46204601F036F9BB
:104FC00058B9502080F31188BFF34F8FBFF36F8F14
:104FD000FEE720F0010084F82400216A01B0204699
:104FE000BDE8F040084700004802002030B585B019
:104FF000394D67E00298002864DB049C606910B1B9
:10500000201D00F0D7F901A800F0B0F80246029880
:105010000A2857D2DFE800F00505052D334A0505BB
:105020002D3394F8240040F0010084F82400039804
:10503000A169034601442046FFF768FF68B3216A6F
:105040002046884794F8240040073BD50020009074
:105050000398A169002342181946204601F0E6F89A
:10506000D8B9502080F31188BFF34F8FBFF36F8FF3
:10507000FEE714F8240F20F00100207022E094F8DD
:10508000240040F0010084F824000398A06128B1B6
:10509000811813462046FFF739FF13E0502080F3B4
:1050A0001188BFF34F8FBFF36F8FFEE794F8240092
:1050B000810703D4204600F00FFA03E020F001003E
:1050C00084F82400002202A9286800F09FFD00282F
:1050D00090D105B030BD000048020020F8B506466A
:1050E0000D4600F053FB684600F040F80446009877
:1050F00010B100F0CDFFF8BD45B9A64206D800F0CA
:10510000C7FF21463046FFF73DFFF8BD0C481DB1F3
:105110000169096891B10025311B2A46006800F039
:105120005BFA00F0B5FF0028EFD106494FF0805040
:105130000860BFF34F8FBFF36F8FF8BD0125EBE71A
:105140004802002004ED00E00748416B096800298F
:1051500005D0416BC968C9684968816270474FF0E2
:10516000FF318162704700000C02002070B50546D7
:1051700000F096FE0446074EB068844204D200F068
:105180000BF80120286001E000202860B460204670
:1051900070BD000048020020F8B51A4E20E0C0683B
:1051A0000568C468201D00F005F9216A204688477B
:1051B00094F82400400713D5A0692844A84206D9D2
:1051C00060602461211DF06800F02CF908E00020E7
:1051D0000346014600902A46204601F027F840B1D8
:1051E000F06801680029DAD1F0683169F160306156
:1051F000F8BD502080F31188BFF34F8FBFF36F8F3E
:10520000FEE700004802002009484068401C07D023
:10521000502080F31188BFF34F8FBFF36F8FFEE7ED
:10522000502080F31188BFF34F8FBFF36F8FFEE7DD
:105230007C02002008B56846FFF748FD0099FFF79B
:105240004DFFFFF7D3FEF6E72DE9F041044600F0ED
:105250000DF994F9455004F1240609E0606A48B15B
:10526000304600F0D7FE08B100F00AFA6D1E6DB2AC
:10527000002DF3DC4FF0FF3684F8456000F016F99E
:1052800000F0F4F894F9445004F1100709E02069A3
:1052900048B1384600F0BEFE08B100F0F1F96D1ECD
:1052A0006DB2002DF3DC84F84460BDE8F04100F0FD
:1052B000FDB800002DE9F0410546002600F066FA31
:1052C000324F386808B9FFF713FD786905424DD1B0
:1052D0008DB1083568070ED005F00700C0F1080051
:1052E0000544680707D0502080F31188BFF34F8F23
:1052F000BFF36F8FFEE7CDB37868854236D8234978
:1053000018310846046801E0214604466068A84256
:1053100002D220680028F7D13868844226D00E686F
:105320000836206808606068411B10290ED9601992
:10533000420707D0502080F31188BFF34F8FBFF38F
:105340006F8FFEE741606560FFF7B6FD61687868C2
:10535000401A7860BA68904200D2B8607869014318
:10536000616000202060F868401CF86000F090FE4A
:10537000700707D0502080F31188BFF34F8FBFF321
:105380006F8FFEE73046BDE8F08100005C02002030
:1053900024384FF08073036221F00101C161044998
:1053A000816142606FF0020140F8201970470000EF
:1053B000095200080169D0E901329A60D0E901235D
:1053C0005A604A68824201D182684A6000220261C2
:1053D0000868401E0860086870470000034B0360BF
:1053E00003F154000860802010607047880200209C
:1053F000044B036003F1540008604FF480701060A8
:1054000070470000DC04002000F1080141604FF00B
:10541000FF328260C160016100210160704700219C
:105420000161704730B50C68621C02D000F10802BF
:1054300002E0026904E01A4653681D68A542FAD9E1
:1054400053684B6099608A60516008610168491C2B
:10545000016030BD42684A6093688B609368596010
:10546000916008610168491C01607047502080F319
:105470001188BFF34F8FBFF36F8F0A494868401CF4
:10548000486001280CD10848006810F0FF0F07D0D1
:10549000502080F31188BFF34F8FBFF36F8FFEE76B
:1054A000704700007C02002004ED00E009494868D4
:1054B000002806D0401E4860002801D180F31188E2
:1054C0007047502080F31188BFF34F8FBFF36F8F69
:1054D000FEE700007C02002070B500282AD00838C2
:1054E0000446154D60686969084207D1502080F371
:1054F0001188BFF34F8FBFF36F8FFEE722683AB179
:10550000502080F31188BFF34F8FBFF36F8FFEE7FA
:105510008843606000F03AF9606869680844686030
:105520002046FFF7C9FC2869401C2861BDE870408F
:1055300000F0AEBD70BD00005C0200204FF0E02026
:1055400000210161816105494FF47A720968B1FB5C
:10555000F2F1491E416107210161704708020020F4
:1055600010B5FAF7E1FE114910280ED300F1E02042
:1055700090F8F0030A78904207D2502080F3118807
:10558000BFF34F8FBFF36F8FFEE70948006889684C
:1055900000F4E060884207D9502080F31188BFF3FF
:1055A0004F8FBFF36F8FFEE710BD00007C0200201D
:1055B0000CED00E010B50022064B53F832401CB150
:1055C000521C082AF9D310BD43F8321003EBC20174
:1055D000486010BDB810002070B504460D46164650
:1055E000FFF744FF94F944304FF000005B1C01D1F9
:1055F00084F8440094F94510491C01D184F8450011
:10560000FFF754FFA06B28B93246294604F1240065
:1056100000F056F82046BDE87040FFF715BE0000C8
:1056200010B502460020002A12D00F48006B38B196
:10563000502080F31188BFF34F8FBFF36F8FFEE7C9
:1056400000F0A4F800211046FFF70EFA00F020FD4C
:10565000002807D105494FF080500860BFF34F8FF5
:10566000BFF36F8F10BD00000C02002004ED00E0BE
:1056700002490A6A0260C968416070470C02002052
:1056800001490120C86170470C02002010B50C468A
:1056900000280AD0094909681831FFF7C3FE2046DF
:1056A000BDE810400121FFF7DFB9502080F31188D9
:1056B000BFF34F8FBFF36F8FFEE700000C02002097
:1056C00070B50D46144600280DD00B4909681831F5
:1056D000FFF7C0FE0CB14FF0FF3521462846BDE86C
:1056E0007040FFF7C1B9502080F31188BFF34F8F8E
:1056F000BFF36F8FFEE700000C02002030B587B0CB
:1057000000250695059504AA05A906A8FFF766FEDB
:10571000DDE90510CDE900510290002317A11948D9
:10572000049A00F081FB184CE06208B1012000E00F
:105730000020012801D100F045FD012809D0401CBE
:1057400019D1502080F31188BFF34F8FBFF36F8FB3
:10575000FEE7502080F31188BFF34F8FBFF36F8FA8
:105760004FF0FF30A06201206061E56007B0BDE846
:10577000304000F043B807B030BD000049444C450C
:10578000000000003D4D00080C0200200248016BA3
:10579000491C0163704700000C020020154A106B81
:1057A000002802D00120D06170470020D06110692C
:1057B000B0FA80F0C0F11F000F4900EB800051F8F3
:1057C000203073B101EB800041684968416000F10D
:1057D0000803994201D1496841604068C06810607F
:1057E0007047502080F31188BFF34F8FBFF36F8F46
:1057F000FEE700000C020020F81000201CB537481E
:105800000168374A914207D1502080F31188BFF3D5
:105810004F8FBFF36F8FFEE700683149491E884202
:1058200007D1502080F31188BFF34F8FBFF36F8FE4
:10583000FEE72C4908780190FF2008700878009056
:105840009DF800009DF8002000F0F000904207D085
:10585000502080F31188BFF34F8FBFF36F8FFEE7A7
:105860009DF80000204C00F0500020700720A06040
:1058700006E0A068401EA0609DF800004000009077
:105880009DF800000006F4D4A068032807D050203B
:1058900080F31188BFF34F8FBFF36F8FFEE74FF494
:1058A0004070A060019808700C482030016841F4F5
:1058B00070010160016841F070410160FFF73EFE38
:1058C00000206060FAF7F8FC0848016841F04041A8
:1058D0000160FAF7DDFC00201CBD000000ED00E0D7
:1058E00071C20F4100E400E07C02002034EF00E0D0
:1058F00038B5049D002804D05BB102B189B1C2B1B2
:1059000020E0502080F31188BFF34F8FBFF36F8FDB
:10591000FEE7502080F31188BFF34F8FBFF36F8FE6
:10592000FEE7502080F31188BFF34F8FBFF36F8FD6
:10593000FEE739B1502080F31188BFF34F8FBFF3DA
:105940006F8FFEE7482400941C46012384F84630FC
:105950002B460094FFF706FA204638BD70B5044682
:105960000D46002C25D0FFF781FDD4E90F202168DA
:1059700002FB0011A1600021A16321686160E06B5E
:105980002268216C401E00FB0121E1604FF0FF30D6
:1059900084F8440084F8450004F110008DB1FFF74D
:1059A00033FD04F12400FFF72FFDFFF77FFD0120F9
:1059B00070BD502080F31188BFF34F8FBFF36F8FFE
:1059C000FEE721690029F0D000F024FB0028ECD08C
:1059D00004494FF080500860BFF34F8FBFF36F8FC3
:1059E000E3E7000004ED00E02DE9FF4782B0044644
:1059F0008A461E460025002C03D0BAF1000F08D0BD
:105A000011E0502080F31188BFF34F8FBFF36F8FE9
:105A1000FEE7206C38B1502080F31188BFF34F8F20
:105A2000BFF36F8FFEE7022E0AD1E06B012807D08B
:105A3000502080F31188BFF34F8FBFF36F8FFEE7C5
:105A400000F020FA48B9049838B1502080F311884A
:105A5000BFF34F8FBFF36F8FFEE74FF000094FF09A
:105A60008057DFF8E480FFF701FDA06BE16B88420F
:105A700005D3022E03D0049808B325B327E032469D
:105A800051462046FFF7CAF8616A59B104F1240073
:105A900000F0C0FA68B1C8F80070BFF34F8FBFF3D1
:105AA0006F8F06E028B1C8F80070BFF34F8FBFF3C7
:105AB0006F8FFFF7FBFC012006B0BDE8F087FFF712
:105AC000F5FC0020F8E76846FFF7D2FD0125FFF757
:105AD000EDFCFFF75BFEFFF7C9FC94F94400401CA6
